:020000040800F2
:10000000083A0020DD010008C93600084130000828
:10001000C5360008AD08000859430008000000007C
:100020000000000000000000000000004501000882
:10003000A90E00080000000089010008813D0008A9
:10004000F7010008F7010008F7010008F7010008B0
:10005000F7010008F7010008F7010008F7010008A0
:10006000F7010008F7010008F7010008F701000890
:10007000F7010008F7010008F7010008F701000880
:10008000F7010008F7010008F7010008F701000870
:10009000F7010008F7010008F70100086B130008DA
:1000A000F7010008F7010008F7010008F701000850
:1000B000F7010008F7010008F7010008F701000840
:1000C000F7010008F7010008F7010008F701000830
:1000D000F7010008A5420008F7010008D94200080E
:1000E00057130008F7010008F7010008F70100089E
:1000F0001D3E0008F7010008F7010008F70100089D
:10010000F7010008F7010008F7010008F7010008EF
:10011000F7010008F7010008F7010008F7010008DF
:10012000F7010008F7010008F7010008F7010008CF
:10013000DFF80CD000F0F8F800480047F948000854
:10014000083A0020224B19680868B0E8F00F80F3E5
:100150000988BFF36F8F4FF0000080F311884EF0D5
:100160000D0E70470000000006480068006880F32C
:10017000088862B661B6BFF34F8FBFF36F8F00DFA1
:1001800000BF00BF08ED00E0EFF30980BFF36F8F01
:100190000F4B1A6820E9F00F106008B54FF05000BF
:1001A00080F31188BFF34F8FBFF36F8F05F094FF7B
:1001B0004FF0000080F31188BDE808401968086816
:1001C000B0E8F00F80F30988BFF36F8F704700BF6E
:1001D00034000020EFF30580704700000648804798
:1001E00006480047FEE7FEE7FEE7FEE7FEE7FEE71C
:1001F000FEE7FEE7FEE7FEE71B3E000831010008D0
:1002000010B5431A934209D28318881803E010F8F6
:10021000011D03F8011D521EF9D210BD40EA010371
:100220009B0703D009E008C9121F08C0042AFAD2AC
:1002300003E011F8013B00F8013B521EF9D210BD5A
:10024000D2B201E000F8012B491EFBD27047002218
:10025000F6E710B513460A4604461946FFF7F0FFC5
:10026000204610BD30B505462A460B4612F8010B54
:1002700013F8014B08B1A042F8D01CB1002802D0FD
:100280006D1CF1E7284630BD10B5044604E00B783C
:1002900000F8013B03B1491C521EF8D2204610BDA4
:1002A000421C10F8011B0029FBD1801A704710B5C1
:1002B000002200E0521C835C8C5CA34201D1002B25
:1002C000F8D1D8B2E1B2401A10BD034611F8012BA3
:1002D00000F8012B002AF9D11846704730B50546C1
:1002E0000020034600E05B1C934205D2EC5CC85C36
:1002F000201A01D1002CF6D130BD30B50B46014695
:1003000000202022012409E021FA02F59D4205D3B4
:1003100003FA02F5491B04FA02F52844151EA2F15E
:100320000102F1DC30BD0000064C074D06E0E0683C
:1003300040F0010394E8070098471034AC42F6D32C
:10034000FFF7FAFE9C870008BC87000870B58C1880
:1003500010F8015B15F0070301D110F8013B2A11D9
:1003600006D110F8012B03E010F8016B01F8016BC6
:100370005B1EF9D12B0705D40023521E0DD401F8C2
:10038000013BFAE710F8013BCB1A921C03E013F88B
:10039000015B01F8015B521EF9D5A142D8D30020C0
:1003A00070BD00002DE9F04105460C4608261027D7
:1003B000104800EB0518CCB1206920606069C01BB3
:1003C000401C606020693044A0616069E061A66003
:1003D000E760206A10B9C4F8208004E0102241468A
:1003E000206AFFF70DFF0020BDE8F0814FF0FF30DD
:1003F000FAE70000D47E000808B10822026009B1C3
:1004000010220A60704700002DE9F04399B00746BA
:100410000E460024394630A003F0DEFF3448006861
:1004200081683348006888473846FFF739FF8146BE
:100430002F4800684A463946C3682D4800689847E7
:100440002B48006802222BA1C368294800689847FE
:1004500002F03AFF804637E00DEB040124480068C3
:10046000026923480068904738BB1DF8041022A099
:1004700003F0B2FF04B3601E1DF800000D281BD16D
:100480001DF804000A2817D1611C684604F022FAFE
:1004900030B11AA003F0A0FF002019B0BDE8F0832E
:1004A000611C684604F004FA28B116A003F094FF1A
:1004B0004FF0FF30F1E70024641C02F005FF054611
:1004C000454501DD761EA846002EC5D110A003F0DB
:1004D00083FFB01EE1E7000053656E642041544382
:1004E0006F6D6D616E643A2025730D0A0000000087
:1004F000FC0100200D0A000025630000204F4B0D79
:100500000A000000204552524F520D0A0000000020
:100510002074696D656F75740D0A00002DE9F05F38
:100520008046894617464D46002427480068816862
:100530002548006888474046FFF7B2FE83462248B8
:1005400000685A464146C3681F48006898471E48DD
:10055000006802221DA1C3681B480068984702F08A
:10056000B3FE82462CE02919174800680269164834
:1005700000689047E8B9DCB1601E285C0D2817D1EF
:10058000285D0A2814D1611C284604F0A3F928B17B
:100590000021601C29540020BDE8F09F611C284602
:1005A00004F086F920B10021601C2954481EF3E7AD
:1005B000641C02F089FE0646564501DD7F1EB246E8
:1005C000002FD0D1B81EE7E7FC0100200D0A000083
:1005D0002DE9F04F9BB082460E4617464FF0000BB8
:1005E0000024A04602F070FE019054E002A8011918
:1005F0002B48006802692A4800689047002842D1C9
:10060000BBF1000F06D0BBF1010F12D0BBF1020FFE
:1006100038D128E0002102AA601C115421A102A8AF
:10062000FFF720FE18B14FF0010B002400E0641C1E
:1006300028E002A8005D3A2813D14FF000090AE033
:1006400002A810F8090008EB880100EB4100A0F1B6
:10065000300809F10109A145F2DB4FF0020B00243B
:1006600000E0641C0EE002A8005D0AF80400641CAF
:10067000444506D10EB1C6F8008000201BB0BDE88D
:10068000F08F00BF00BF02F01FFE054601998D42AA
:1006900001DD7F1E0195002FA8D1B81EEEE70000F6
:1006A000FC0100202B4950442C0000002DE9F047AC
:1006B0009AB00746884614464FF0000917B1B8F1C2
:1006C000000F04DC4FF0FF301AB0BDE8F08742465F
:1006D00045A112A803F0A8FE474800688168464873
:1006E0000068884712A8FFF7DBFD82464248006891
:1006F000524612A9C3684048006898473E480068BF
:1007000002223EA1C3683C480068984702F0DCFD25
:10071000064613E03848006811A9026936480068A7
:10072000904720B99DF844003E2800D108E002F02F
:10073000CBFD0546B54201DD641E2E46002CE9D1F5
:1007400000BF14B96FF00100BEE72B4800684246B5
:100750003946C36828480068984702F0B5FD064648
:100760003DE02548006811A90269234800689047C8
:1007700070BBB9F13F0F0ADA9DF84420484609F1F1
:10078000010901A90A54002001F809000CE03E22E9
:100790000DF1050101A8FFF733FD9DF844008DF828
:1007A000420000208DF8430015A101A8FFF75AFD73
:1007B00008B1002088E714A101A8FFF753FD20B974
:1007C00013A101A8FFF74EFD10B14FF0FF307BE7FA
:1007D00002F07AFD0546B54201DD641E2E46002C6E
:1007E000BFD1A01E70E7000041542B434950534530
:1007F0004E443D2564000000FC0100200D0A00006D
:1008000053454E44204F4B004552524F520000007A
:100810004641494C0000000010B500F0DBFD0549E1
:100820000860084600684168024800688847002060
:1008300010BD0000FC01002010B5024800F036FB9E
:1008400010BD00007001002010B5FFF7F5FF10BDCE
:1008500010B5024800F0B0FD10BD00009801002066
:1008600010B5FFF7F5FF10BD10B5024802F002FD0C
:1008700010BD0000B400002010B5024802F0FAFCE0
:1008800010BD0000DC00002010B5FFF7EDFFFFF702
:10089000F3FF10BD10B5024802F018FF10BD0000B4
:1008A000B801002010B5FFF7F5FF10BD00BFFEE74F
:1008B00010B5044600F0E6F8002010BD10B504465F
:1008C00004F10801201D00F07FF910BD10B50446A9
:1008D000204600F0F3FE10BD70B504460D462946D3
:1008E000204600F0FFFE70BD10B502F013FD10BDF4
:1008F00010B501F0C7F910BD10B501F0C3F910BD76
:1009000070B504460D462946204601F025FA70BD13
:1009100001460020704710B50446606802F022FFCF
:1009200010BD10B5044602F097FB02F02EFF002028
:1009300010BD70B504460D462946204603F0F6FC6E
:10094000002070BD70B504460D462079022806D1FE
:1009500004F118012846FFF7B8FC002070BD20798B
:10096000C8B9606910B14FF0FF30F7E7206901287E
:1009700004D10AA12846FFF7A8FC0AE02069022852
:1009800004D10EA12846FFF7A0FC02E04FF0FF3093
:10099000E4E70020E2E74FF0FF30DFE77B22646509
:1009A00076223A226C616D7031222C22737461744C
:1009B0007573223A2232227D000000007B2264659A
:1009C00076223A226C616D7032222C22737461742B
:1009D0007573223A2232227D0000000010B50446D1
:1009E000204602F04FFC10BD10B50446204602F030
:1009F0004FFC10BD1FB500200090019002900390A5
:100A00004021094800F0A0FE084801900120029012
:100A1000402000906946044800F086FF002205212E
:100A2000172001F033FA1FBD001C014000003110F7
:100A30001FB50020009001900290039040210848CB
:100A400000F082FE402000901120019001200290D1
:100A5000032003906946024800F066FF1FBD0000B6
:100A6000001C014010B5172001F0DEF910BD000098
:100A700010B5002002490860172001F0F7F910BDF9
:100A80002400002008B500F047F900BF0E48806937
:100A900040F080000C4988610846806900F08000C1
:100AA000009000BF00BFFFF7C3FF03220021012019
:100AB00005F018FC054908600846006810B904A054
:100AC00003F08AFC08BD0000001002403000002046
:100AD00063616E206E6F742063726561746520536C
:100AE000656D6170686F72650D0A000008B50020C1
:100AF000009069460748006805F03AFF009838B151
:100B00004FF0805004490860BFF34F8FBFF36F8FE1
:100B100008BD00003000002004ED00E02DE9FC4796
:100B20000746884600F0C6FC81460025002646E0C0
:100B3000354600241FE000200DF80400824616E030
:100B40001DF804004006000E0DF80400681C59F85A
:100B5000200059F82510401A282805DD1DF804004A
:100B600040F001000DF80400AD1C0AF1010ABAF1D1
:100B7000080FE5DB641C052CDDDB9DF800009DF80B
:100B8000011008449DF8021008449DF80310084421
:100B90009DF80410884211D19DF8000064280DDCF6
:100BA0009DF80200502809DC9DF80000C8F80000FC
:100BB0009DF8020038600020BDE8FC87761C062EF8
:100BC000B6DD4FF0FF30F7E72DE9F04105460E4660
:100BD0004FF0FF3700240EE03146284600F030F891
:100BE000074627B900200F490860BDE8F0810220C0
:100BF00005F052F8641C052CEEDB0A480068401C26
:100C000008490860084600680A2190FBF1F201FBE0
:100C1000120020B90348016803A003F0DDFB4FF088
:100C2000FF30E2E72C000020444854313120726547
:100C30006164206661696C207825640D0A000000FB
:100C400070B504460D4600F03DF8012240211848D9
:100C500001F012F800F044F8FFF7CCFEFFF708FFB0
:100C60000A211448006806F017F801280DD000F09A
:100C70004BF8FFF7F7FEFFF7DBFE012240210C489F
:100C800000F0FAFF4FF0FF3070BD012005F004F8CE
:100C900000F03AF8FFF7E6FEFFF7CAFE0122402116
:100CA000034800F0E9FF29462046FFF737FFEBE74E
:100CB000001C01403000002001480068406A704775
:100CC000EC04002010B500224021044800F0D4FFBD
:100CD00044F6206000F0CCF810BD0000001C01407C
:100CE00070B5002542F2107400BF06480068C46267
:100CF0000448C46000BF00684562024801F020FD5E
:100D000070BD0000EC04002010B5024801F0A2FD07
:100D100010BD0000EC04002000B587B00020039057
:100D20000490059006900190029000BF1B48C06996
:100D300040F002001949C8610846C06900F002008D
:100D4000009000BF00BF16481649086000211548F2
:100D5000C160472013494860002112480161816049
:100D60004161816101F0B8FC08B100F017FB4FF45C
:100D70008050039003A90B4801F085FD08B100F0F5
:100D80000DFB00200190029001A9064801F056FCDD
:100D900008B100F003FB07B000BD000000100240E6
:100DA00000040040EC04002094B0012000F01CFB83
:100DB000044600252046E168884702F0FDFA33E04A
:100DC0002046216988470746002F29D11DB917A061
:100DD00000F04EFB054602F071FB804602F07AFB04
:100DE0008146CDF80090434612A0D4E9011203F0E9
:100DF000F3FAA0688DE8010314A2402104A86368F7
:100E000003F0FAFA06465DB1002E09DD04A8CDE92B
:100E1000000600231A4615A12846D5F834C0E0473D
:100E200041F2883004F038FFCAE70000657370387B
:100E300032363600543D25642C483D25642C4C3D0B
:100E400025642C413D25750D0A0000007B225422AB
:100E50003A25642C2248223A25642C224C223A2539
:100E6000642C224151223A25757D00007564700082
:100E700070B50446002500BF0A480068C4620948EE
:100E8000C46000BF00684562064801F059FC03E0F9
:100E900004480068406A85B2A542F9D1014801F0D2
:100EA000D9FC70BDEC0400207047000002490968BD
:100EB00041620149086070476C01002070B59EB026
:100EC00040F2D24625A000F0D3FA044619A92046E4
:100ED000A26A904728B9324619A922A003F07CFAE9
:100EE00004E027A003F078FA1EB070BD2046216B05
:100EF0008847324626A12046E36A984718B925A0BC
:100F000003F06AFA02E029A003F066FA2DA000F0CF
:100F100075FA054669696868FFF799F92BA30F22EE
:100F20000021284602F0C4FD19AB1F2200212846EB
:100F300002F0BEFD324626A1684603F075FA6B4604
:100F40002F220021284602F0B3FD23A33F220021D7
:100F5000284602F0ADFD00BFC6E70000657370389B
:100F600032363600426F617264204950203D2025A0
:100F7000732C20706F7274203D2025640D0A0000D0
:100F8000476574496E666F206572720D0A00000035
:100F900075647000437265617465205472616E738C
:100FA000666572206F6B0D0A000000004372656178
:100FB0007465205472616E73666572206572720D7D
:100FC0000A0000004F4C45440000000049503A0020
:100FD000506F72743A2564007777772E3130306124
:100FE000736B2E6E6574000070B50BA5284600F07B
:100FF00005FA044661696068FFF729F908A3102221
:101000000021204602F054FD0AA32222002120469E
:1010100002F04EFD70BD00004F4C45440000000042
:1010200056312E302046726F6D2031303041534B97
:10103000000000005374617274696E672E2E2E00DA
:1010400070B506A4204600F0D9F9054605A336225E
:101050000021284602F02CFD70BD00004F4C454495
:10106000000000005749464920436F6E6E65637467
:10107000696E67202E2E2E002DE9F04105460C46A4
:10108000676818E026680DE03A463146204600F0D1
:10109000F5F9804643463A4631462846D5F820C001
:1010A000E047761CA16820680844B04202DDA868C9
:1010B000B042E9DC7F1CE16860680844B84202DDA8
:1010C000E868B842DEDCBDE8F081000010B50446F7
:1010D00040F6B83101A0FFF797F910BD41542B43FA
:1010E0004950434C4F53450070B59AB006460C46E4
:1010F00015462B46224605A101A803F095F942F2B8
:10110000107101A8FFF780F91AB070BD41542B434C
:10111000574A41503D222573222C2225732200007C
:1011200070B59AB005460E46144641F6907306A275
:1011300008A101A8009403F077F940F6B83101A89E
:10114000FFF762F91AB070BD3137322E32302E31CE
:10115000302E320041542B43495053544152543D98
:1011600022554450222C222573222C25642C2564E0
:101170002C320000F0B593B00746324C3248056877
:1011800067550068401C304908603048007820B13D
:10119000012818D0022851D12EE020782B2803D026
:1011A0000020294908600DE0042D0BD1052228A15B
:1011B0002046FFF793F810B9012024490870002059
:1011C000214908603AE0605D3A2814D100260AE01F
:1011D000A05D2149096801EB810100EB4100303835
:1011E0001D490860761CAE42F2DB022017490870E8
:1011F00000201549086021E0134800681649096875
:1012000088421AD102F060F8009002208DF80400A4
:1012100011482146026806A8FFF736F8002106A803
:101220000D4A12688154684602F002FC002007490A
:101230000870054908600849086000BF00BF13B086
:10124000F0BD000048310020D4000020D000002074
:101250002B4950442C000000D80000202DE9F0411B
:10126000B2B006460F4642F21072694612A0FFF76E
:1012700055F98046B8F1000F1AD112A16846FEF761
:10128000F1FF0446A4B10E34002503E0615D301D7A
:1012900041556D1C605D2228F8D10021301D41555B
:1012A000311D3846FFF711F8002032B0BDE8F0815B
:1012B0004FF0FF30F9E7000041542B4349465352A9
:1012C000000000002B43494653523A5354414950C1
:1012D0002C22000010B50446FFF79EFA40F6B83104
:1012E00004A0FFF791F840F6B83105A0FFF78CF89D
:1012F000002010BD41542B43574D4F44453D330012
:1013000041542B4349504D55583D300010B50248CB
:1013100002F0C8FB002010BD751100082DE9F04156
:1013200007460C4615461E46324629462046FFF71C
:101330004FF9BDE8F0812DE9F04706460F4690468B
:101340009946DDE908454FF47A7229462046FFF7B1
:10135000ADF9BDE8F08710B54FF4804000F0D6FA43
:101360004FF4004000F0D2FA10BD10B5402000F05C
:10137000CDFA10BD10B501220E21272000F086FD08
:10138000272000F073FD04480068C06840F020008A
:1013900001490968C86010BDD002002072B600BFC4
:1013A000FEE701460020704770B504460D46294609
:1013B000204601F079FF70BD024909684161014989
:1013C00008607047B001002010B501F075FF0020E3
:1013D00010BD00000048704744010020024610780C
:1013E00008600120704700000146012901DC024825
:1013F00070470020FCE700005801002010B50446AB
:10140000204603F025F810BD00487047F00000208A
:1014100070B504460D460348006829460269204617
:10142000904770BDB401002010B50446204603F07B
:1014300023F810BD10B504464FF0FF322146034893
:10144000006805F03DFB002010BD0000C800002032
:101450000146002907DB022905DC01EB4100034AB4
:1014600002EBC00070470020FCE70000FC000020F9
:1014700010B50446204603F013F810BDF0B503463E
:101480000C4615461A6A1868261A5868291A082937
:1014900001DA324402E006F108000244082900DBC8
:1014A0000839107801278F403840F0BD0048704758
:1014B0007C310020004870475C0300200146002278
:1014C00091F82100022808D00420886300BF002082
:1014D00081F8200000BF012070470868006820F0F4
:1014E0000E000B6818600868006820F001000B68A7
:1014F000186091F8403001209840CB6B5860012073
:1015000081F8210000BF002081F8200000BF1046B4
:10151000E2E7000070B50446002594F82100022897
:1015200003D00420A0630125C1E02068006820F0FA
:101530000E00216808602068006820F00100216822
:1015400008605C492068884252D95A497839206835
:10155000884201D1012047E0564964392068884219
:1015600001D1102040E0534950392068884201D110
:10157000801539E04F493C392068884201D18014F8
:1015800032E04C4928392068884202D14FF480303B
:101590002AE0484914392068884202D14FF480106B
:1015A00022E044492068884201D140041CE04249BD
:1015B0002068884201D1012016E03F49143120689B
:1015C000884201D110200FE03B4928312068884231
:1015D00001D1801508E038493C312068884201D1AA
:1015E000801401E04FF480303349091F086051E056
:1015F000304978392068884201D1012047E02D49DF
:1016000064392068884201D1102040E029495039CE
:101610002068884201D1801539E026493C3920688C
:10162000884201D1801432E022492839206888425A
:1016300002D14FF480302AE01E49143920688842D4
:1016400002D14FF4801022E01A492068884201D16B
:1016500040041CE018492068884201D1012016E0AE
:10166000154914312068884201D110200FE0124939
:1016700028312068884201D1801508E00E493C31AC
:101680002068884201D1801401E04FF4803009497C
:1016900080394860012084F8210000BF002084F8D0
:1016A000200000BF606B10B12046616B8847284660
:1016B00070BD0000800002400804024070B504467E
:1016C00000F0E0FA06462546681C10B10448007890
:1016D000054400BF00F0D6FA801BA842FAD370BDC3
:1016E0000C00002070B505460C4615B94FF0FF30D0
:1016F00070BD54B900224021114800F0BDFA00220B
:101700004021104800F0B8FA18E0002C0ADD002251
:1017100040210B4800F0B0FA01224021094800F0B6
:10172000ABFA0BE0002C09DA01224021044800F05A
:10173000A3FA00224021034800F09EFA0020D7E7D8
:1017400000180140001001402DE9F04102460B460F
:1017500000208BE00127874007EA030100297DD0A4
:10176000464F4FEA900C57F82C4087074FEA177CFA
:101770000F2707FA0CF73C40414FBA4201D100272E
:1017800019E0404FBA4201D1012714E03E4FBA425E
:1017900001D102270FE03D4FBA4201D103270AE0F1
:1017A0003B4FBA4201D1042705E03A4FBA4201D17A
:1017B000052700E006274FEA807C4FEA1C7C07FAE9
:1017C0000CF7A74230D187074FEA177C0F2707FA9B
:1017D0000CF42A4F4FEA900C57F82C70A743DFF80F
:1017E0009CC04FEA90084CF828702B4F3F688F43FD
:1017F000DFF8A4C0CCF800700CF104073F688F43F9
:101800000CF1040CCCF800700CF104073F688F4316
:101810000CF1040CCCF800700CF104073F688F4306
:101820000CF1040CCCF80070FF2901D8174600E039
:10183000171D3D46FF2901D8870002E0A0F10807E7
:10184000BF003E462F684FF00F0C0CFA06FC27EA4B
:101850000C074FF0040C0CFA06FC00E005E047EA28
:101860000C072F60D7688F43D760401C23FA00F71E
:10187000002F7FF46FAFBDE8F08100000800014049
:1018800000080140000C014000100140001401401C
:1018900000180140001C01400004014070B50446DE
:1018A000B4F5804F08D100F0EDF900F11405294698
:1018B000002002F0F1F823E0B4F5004F08D100F069
:1018C000E1F900F114052946012002F0E5F817E0DE
:1018D000402C15D10B480068532800D170BDFFF78C
:1018E000EBF908490A680968491C064B1960064962
:1018F00041F8220018460068502801D1FFF7F6F899
:1019000000BFEBE7240000205C03002010B5044674
:1019100004480068204020B1024804602046FFF7D8
:10192000BDFF10BD140401402DE9F8470246002315
:101930009C467BE14FF0010808FA03F4D1F80080DF
:1019400008EA0400A0427DD1DFF8F4A2D1F80480B7
:10195000A8EB0A09D0453AD014DCB8F1030F50D0F7
:1019600009DCB8F1000F31D0B8F1010F1CD0B8F18B
:10197000020F49D120E0B8F1110F18D0B8F1120FC1
:1019800042D11EE0B9F5881F25D006DCB9F5803FAD
:1019900020D0B9F5801F37D11AE0B9F5001F18D053
:1019A000B9F5041F30D117E0D1F80CC02DE0D1F803
:1019B0000C8008F1040C28E0D1F80C8008F1080C28
:1019C00023E0D1F80C8008F10C0C1EE000BF00BF32
:1019D00000BF00BF00BF00BFD1F80880B8F1000F02
:1019E00002D14FF0040C0BE0D1F80880B8F1010FE0
:1019F00003D14FF0080C146102E04FF0080C546161
:101A000003E04FF0000C00E000BF00BFFF2801D84A
:101A1000904601E002F104084646FF2802D84FEA4A
:101A2000830803E0A3F108084FEA88084746D6F880
:101A300000804FF00F0909FA07F928EA09080CFAA3
:101A400007F900E07AE048EA0908C6F80080D1F812
:101A5000048008F08058B8F1805F6FD100BFDFF8D4
:101A6000E481D8F8188048F00108DFF8D891C9F867
:101A70001880C846D8F8188008F00108CDF8008012
:101A800000BF00BF4FEAB9384FEA930958F8295010
:101A90004FEA83784FEA18794FF00F0808FA09F8EF
:101AA00025EA0805DFF8A081424502D14FF0000881
:101AB00024E0DFF89881424502D14FF001081DE093
:101AC000DFF88C81424502D14FF0020816E0DFF8C2
:101AD0008481424502D14FF003080FE0DFF878819E
:101AE000424502D14FF0040808E0DFF8708142451A
:101AF00002D14FF0050801E04FF006084FEA837964
:101B00004FEA197908FA09F848EA0505DFF8508123
:101B10004FEA930948F82950D1F8048008F4803836
:101B2000B8F5803F0BD1DFF83C81D8F8008048EA57
:101B30000008DFF83091C9F800800AE075E0DFF8AE
:101B40002481D8F8008028EA0008DFF81891C9F845
:101B50000080D1F8048008F40038B8F5003F0ED1B9
:101B6000DFF8008108F10408D8F8008048EA00088E
:101B7000DFF8F09009F10409C9F800800DE0DFF802
:101B8000E48008F10408D8F8008028EA0008DFF8AB
:101B9000D49009F10409C9F80080D1F8048008F450
:101BA0008018B8F5801F0ED1DFF8B88008F108085A
:101BB000D8F8008048EA0008DFF8A89009F1080981
:101BC000C9F800800DE0DFF89C8008F10808D8F81B
:101BD000008028EA0008DFF88C9009F10809C9F8AC
:101BE0000080D1F8048008F40018B8F5001F0ED169
:101BF000DFF8708008F10C08D8F8008048EA000887
:101C0000DFF8609009F10C09C9F800800DE0DFF8F9
:101C1000548008F10C08D8F8008028EA0008DFF8A2
:101C2000449009F10C09C9F800805B1CD1F80080D0
:101C300028FA03F8B8F1000F7FF47CAEBDE8F8870E
:101C4000000011100010024000080140000C01408B
:101C5000001001400014014000180140001C014028
:101C60000800014000040140024693680B400BB19C
:101C7000012000E0002070470AB1016101E00B047F
:101C800003617047014800687047000004000020AD
:101C9000034800680349097808440149086070470F
:101CA000040000200C00002010B50848006840F037
:101CB000100006490860032000F026F90F2000F00C
:101CC00007F800F081F8002010BD0000002002405D
:101CD00070B588B0044600250026002221462C203D
:101CE00000F0D4F82C2000F0C1F800BF164880693D
:101CF00040F40050144988610846806900F400509F
:101D0000019000BF00BF02A903A800F0D1F900F0C4
:101D100007FA05460D48B5FBF0F0461E0C480D4984
:101D2000086040F2E7310B48C16046600021016164
:101D3000816000F0D1FC20B9064800F043FD08B0F6
:101D400070BD0120FBE700000010024040420F0080
:101D5000003401401403002070B504460D4614B948
:101D60004FF0FF3070BD022D05D1606808B9012029
:101D700000E0002005460DB9012000E000200646E5
:101D80006560206820B1012808D0022814D10CE039
:101D9000324680210B48FFF76FFF10E032464FF4C8
:101DA00080710848FFF768FF09E032464FF4007180
:101DB0000448FFF761FF02E04FF0FF30D2E700BFB9
:101DC0000020CFE7001C014008B500BF144880691F
:101DD00040F00100124988610846806900F0010066
:101DE000009000BF00BF00BF0846C06940F08050AF
:101DF000C8610846C06900F08050009000BF00BF75
:101E000000220F21901E00F041F800BF05494868EC
:101E100020F0E06040F00070486000BF08BD0000A6
:101E2000001002400000014010B50146084600289D
:101E300017DB00F01F0301229A400B4B440943F8C3
:101E4000242000BF00BF00BFBFF34F8F00BF00BF03
:101E500000BF00BF00BF00BFBFF36F8F00BF00BF58
:101E600000BF00BF10BD000080E100E00146084651
:101E7000002809DB00F01F0301229A4043099B0060
:101E800003F1E023C3F8002100BF70472DE9F05FA4
:101E900080460D461646002702F016FB07463946D7
:101EA0002A46334601F00700C0F1070ABAF1040FD1
:101EB00002D94FF0040A01E0C0F1070AD14600F14F
:101EC000040ABAF1070F02D24FF0000A01E0A0F1B4
:101ED000030AD4464FF0010A0AFA09FAAAF1010AE4
:101EE0000AEA020A0AFA0CFA4FF0010B0BFA0CFB91
:101EF000ABF1010B0BEA030B4AEA0B042146404607
:101F000002F0EAFABDE8F09F00BF00F00702064BBE
:101F100019684FF6FF031940044B0B4343EA0221B3
:101F2000014B196000BF70470CED00E00000FA059E
:101F300070B504460D460CB9012070BD58480068C4
:101F400000F00700A8420ED25548006820F00700B4
:101F50002843534908600846006800F00700A8427B
:101F600001D00120E9E7207800F0020002281DD10D
:101F7000207800F00400042805D14A48406840F465
:101F8000E06048494860207800F00800082805D142
:101F90004448406840F460504249486041484068C5
:101FA00020F0F000A16808433E494860207800F026
:101FB000010078B36068012806D13A48006800F44F
:101FC000003090B90120B8E76068022806D1354892
:101FD000006800F0007040B90120AEE731480068A9
:101FE00000F0020008B90120A7E72E48406820F061
:101FF0000300616808432B494860FFF743FE06462B
:1020000009E0FFF73FFE801B41F28831884202D988
:10201000032092E707E02348406800F00C00616865
:10202000B0EB810FEDD11E48006800F00700A84218
:102030000ED91B48006820F00700284318490860A3
:102040000846006800F00700A84201D0012074E7AC
:10205000207800F00400042807D11248406820F4DA
:10206000E060E16808430F494860207800F008000C
:10207000082808D10B48406820F46050216940EAE4
:10208000C1000849486000F05BF806494968C1F39F
:102090000311054A515CC8400449086000204CE720
:1020A0000020024000100240B47800081000002018
:1020B0000F2202600D4A526802F0030242600B4A8E
:1020C000526802F0F0028260084A526802F4E0624C
:1020D000C260064A526802F46052D2080261044AA1
:1020E000126802F007020A60704700000010024008
:1020F00000200240014800687047000010000020E6
:1021000000B5FFF7F7FF04494968C1F30221034A0C
:10211000515CC84000BD000000100240C4780008B7
:1021200000B5FFF7E7FF04494968C1F3C221034A3C
:10213000515CC84000BD000000100240C478000897
:10214000F0B585B00FF26C0C9CE8E01001A8A0E897
:10215000E0101CA52D68009500210022002300241A
:102160000020194D696801F00C05F5B1042D02D06D
:10217000082D19D101E0154819E001ADC1F38346DE
:10218000AC5D01F4803555B10F4D6D68C5F3404528
:102190001DF805200D4D6543B5FBF2F302E00C4D33
:1021A00004FB05F3184602E000BF084800BF00BF6B
:1021B00005B0F0BD02030405060708090A0B0C0D63
:1021C0000E0F1010010200000010024000127A00F1
:1021D00000093D00F8B504460CB90120F8BD20788F
:1021E00000F00100002878D0F848406800F00C00AA
:1021F00004280CD0F548406800F00C00082811D1E4
:10220000F248406800F48030B0F5803F0AD1EF48D2
:10221000006800F4003000285FD0606800285CD1BE
:102220000120DBE700BF6068B0F5803F06D1E748DA
:10223000006840F48030E549086028E0606858B9DB
:10224000E248006820F48030E049086008460068F1
:1022500020F4802008601AE06068B0F5A02F0BD150
:10226000DA48006840F48020D849086008460068D1
:1022700040F4803008600AE0D448006820F48030E0
:10228000D24908600846006820F48020086000BF3A
:10229000606888B1FFF7F6FC054606E0FFF7F2FC40
:1022A000401B642801D9032098E7C848006800F45F
:1022B00000300028F2D010E0FFF7E4FC054606E00D
:1022C000FFF7E0FC401B642801D9032086E7BF48E4
:1022D000006800F400300028F2D1207800F00200FD
:1022E000022857D1B948406800F00C0050B1B748F7
:1022F000406800F00C00082818D1B448406800F489
:10230000803098B9B148006800F0020020B120691F
:10231000012801D0012061E7AC48006820F0F800F6
:10232000616940EAC100A949086033E02069E8B169
:102330000120A7490860FFF7A5FC054606E0FFF766
:10234000A1FC401B022801D9032047E79F480068F1
:1023500000F002000028F2D09C48006820F0F8004D
:10236000616940EAC1009949086013E0002098497A
:102370000860FFF787FC054606E0FFF783FC401B7B
:10238000022801D9032029E79048006800F00200E4
:102390000028F2D1207800F0080008282DD1A0698B
:1023A000B8B101208B490860FFF76CFC054606E0D8
:1023B000FFF768FC401B022801D903200EE7834881
:1023C000406A00F002000028F2D0012001F03EFB3C
:1023D00013E000207F490860FFF754FC054606E043
:1023E000FFF750FC401B022801D90320F6E677488E
:1023F000406A00F002000028F2D1207800F00400CA
:10240000042873D100277148C06900F0805070B96A
:1024100000BF6E48C06940F080506C49C8610846F2
:10242000C06900F08050009000BF00BF01276A48DB
:10243000006800F48070B0B96748006840F48070AC
:1024400065490860FFF71EFC054606E0FFF71AFC29
:10245000401B642801D90320C0E65F48006800F4EF
:1024600080700028F2D000BFE068012806D15748EC
:10247000006A40F001005549086227E0E06858B959
:102480005248006A20F00100504908620846006A7C
:1024900020F00400086219E0E06805280BD14B48E1
:1024A000006A40F00400494908620846006A40F0AA
:1024B000010008620AE04548006A20F00100434933
:1024C00008620846006A20F00400086200BFE06865
:1024D000A0B1FFF7D7FB054609E0FFF7D3FB401B90
:1024E00041F28831884202D9032077E622E037485A
:1024F000006A00F002000028EFD012E0FFF7C2FBF4
:10250000054608E0FFF7BEFB401B41F288318842D8
:1025100001D9032062E62D48006A00F0020000287D
:10252000F0D1012F05D12948C06920F080502749FA
:10253000C86100BFE069C8B32448406800F00C00DF
:10254000082860D0E069022848D1002020490866A8
:10255000FFF798FB054606E0FFF794FB401B0228B7
:1025600001D903203AE61948006800F000700028FD
:10257000F2D1206AB0F5803F07D11448406820F4BA
:102580000030A168084311494860D4E908010843B4
:102590000E49496821F4741108430C494860012030
:1025A0000B490866FFF76EFB054607E03DE0FFF7C5
:1025B00069FB401B022801D903200FE6034800688D
:1025C00000F000700028F2D02FE000000010024060
:1025D0000000424280044242007000400020144942
:1025E0000866FFF74FFB054606E0FFF74BFB401B75
:1025F000022801D90320F1E50E48006800F00070C0
:102600000028F2D111E0E069012800D1E6E509488F
:10261000466806F48031206A814204D106F47011C4
:10262000606A814201D00120D8E50020D6E5000093
:1026300000004242001002407047704730B5024629
:102640000B4600BF92F83C00012801D1022030BDAA
:10265000012082F83C0000BF022082F83D00106893
:1026600044681068816824F0700418680443106896
:102670004460144D1068A84213D0134D1068A8424E
:102680000FD01068B0F1804F0BD0104D1068A842E9
:1026900007D00F4D1068A84203D00E4D1068A84215
:1026A00005D121F080015868014310688160012044
:1026B00082F83D0000BF002082F83C0000BF00BF50
:1026C000C5E70000002C0140003401400004004038
:1026D00000080040000C004010B504460CB9012071
:1026E00010BD94F83D0028B9002084F83C00204635
:1026F00000F025F8022084F83D00211D206801F03B
:1027000095FB012084F8460000BF84F83E000121BB
:102710003F200155402001554120015500BF00BF19
:10272000012084F8420043200155442001554520F2
:10273000015500BF012084F83D000020D0E770471C
:10274000014691F83D00012801D001207047022088
:1027500081F83D00164B0868984213D0154B086865
:1027600098420FD00868B0F1804F0BD0124B086828
:10277000984207D0114B0868984203D0104B086864
:1027800098420CD10868806800F00702062A0CD035
:102790000868006840F001000B68186005E00868F0
:1027A000006840F001000B6818600020CEE70000D0
:1027B000002C0140003401400004004000080040AB
:1027C000000C0040014691F83D00012801D0012095
:1027D0007047022081F83D000868C06840F00100A1
:1027E0000B68D860164B0868984213D0154B0868E0
:1027F00098420FD00868B0F1804F0BD0124B086898
:10280000984207D0114B0868984203D0104B0868D3
:1028100098420CD10868806800F00702062A0CD0A4
:102820000868006840F001000B68186005E008685F
:10283000006840F001000B6818600020C8E7000045
:10284000002C01400034014000040040000800401A
:10285000000C0040014600BF0868006A41F21112F6
:10286000104050B90868006A9210104028B90868F2
:10287000006820F001000A68106000BF012081F8A4
:102880003D00002070472DE9F04104460D4600BF91
:1028900094F83C00012802D10220BDE8F08101201B
:1028A00084F83C0000BF022084F83D002068866860
:1028B00026F0770626F47F46206886602868502830
:1028C00033D00CDC202850D004DC00284BD010285A
:1028D00051D149E0302849D040284CD139E0602816
:1028E0002DD0702807D0B0F5805F03D0B0F5005F21
:1028F00041D10DE040E0D5E902136A68206801F09B
:10290000E3FA2068866846F077062068866033E040
:10291000D5E902136A68206801F0D6FA2068806859
:1029200040F480402168886026E0EA686968206891
:1029300001F0DEFA5021206801F0D1FA1CE0EA68CB
:102940006968206801F0E7FA6021206801F0C7FAA1
:1029500012E0EA686968206801F0CAFA402120683C
:1029600001F0BDFA08E000BF00BF00BF2968206881
:1029700001F0B5FA00E000BF00BF012084F83D007F
:1029800000BF002084F83C0000BF00BF85E770470F
:1029900010B5044620680069C0F34000D8B1206833
:1029A000C068C0F34000B0B16FF002002168086158
:1029B000012020772068806900F0030018B12046CC
:1029C000FFF7E5FF05E0204600F0ADF8204600F0F7
:1029D000ABF80020207720680069C0F38000D8B1F0
:1029E0002068C068C0F38000B0B16FF004002168B7
:1029F0000861022020772068806900F4407018B1D7
:102A00002046FFF7C4FF05E0204600F08CF8204682
:102A100000F08AF80020207720680069C0F3C00029
:102A2000D8B12068C068C0F3C000B0B16FF0080032
:102A300021680861042020772068C06900F0030045
:102A400018B12046FFF7A3FF05E0204600F06BF821
:102A5000204600F069F80020207720680069C0F364
:102A60000010D8B12068C068C0F30010B0B16FF09A
:102A7000100021680861082020772068C06900F4F0
:102A8000407018B12046FFF782FF05E0204600F0B5
:102A90004AF8204600F048F80020207720680069B6
:102AA00000F0010058B12068C06800F0010030B1AA
:102AB0006FF0010021680861204600F037F82068B7
:102AC0000069C0F3C01058B12068C068C0F3C010DE
:102AD00030B16FF08000216808612046FFF7ACFD3F
:102AE00020680069C0F3801058B12068C068C0F346
:102AF000801030B16FF0400021680861204600F07E
:102B000027F820680069C0F3401058B12068C068F9
:102B1000C0F3401030B16FF02000216808612046FA
:102B2000FFF78BFD10BD70477047000010B50446DD
:102B300006492068884201D1FFF7AAF803492068B6
:102B4000884201D100F034FF10BD00000034014084
:102B500070477047704700002DE9F84F0446206821
:102B600005682068C668206847694FF00009CA46B2
:102B700005F00F09B9F1000F0AD105F0200038B1B6
:102B800006F0200020B1204601F036FABDE8F88FAB
:102B9000B9F1000F71D007F0010018B906F4907078
:102BA00000286AD005F0010030B106F4807018B139
:102BB000206C40F00100206405F0040030B107F003
:102BC000010018B1206C40F00200206405F0020002
:102BD00030B107F0010018B1206C40F0040020640F
:102BE00005F0080048B106F0200010B907F0010018
:102BF00018B1206C40F008002064206C68B305F028
:102C0000200028B106F0200010B1204601F0F4F9B0
:102C100020684069C0F3801A206C00F0080010B9E9
:102C2000BAF1000F22D0204601F0BBF920684069BC
:102C300000F04000B0B12068406920F040002168F9
:102C40004861A06B50B15648A16B4863A06BFEF77A
:102C500061FC10B1A06B416B88470CE02046FFF788
:102C600079FF08E02046FFF775FF04E02046FFF7F4
:102C700071FF0020206489E7FFE7206B012878D1ED
:102C800005F01000002874D006F01000002870D065
:102C900000BF002000902068006800902068406815
:102CA000009000BF00BF2068406900F04000C0B342
:102CB000A06B006840681FFA80F8B8F1000F2FD0B1
:102CC000A08D40452CDDA4F82E80A06B80692028C3
:102CD0001FD02068C06820F480702168C860206818
:102CE000406920F00100216848612068406920F0B7
:102CF000400021684861202084F83E0000202063C5
:102D00002068C06820F010002168C860A06BFEF742
:102D1000D5FBA08DE28D801A81B22046FFF719FF06
:102D200034E7FFE7A08DE18D401A1FFA80F8E08DAF
:102D3000E8B1B8F1000F1AD02068C06820F4907094
:102D40002168C8602068406920F00100216848615E
:102D5000202084F83E00002020632068C06820F016
:102D600010002168C86041462046FFF7F2FE0DE7DB
:102D7000FFE705F0800030B106F0800018B1204672
:102D800001F02AFA02E705F0400030B106F04000F9
:102D900018B1204601F020F9F8E600BFF6E6000081
:102DA0008F3F000810B504460CB9012010BDA06982
:102DB00000B100E000BF94F83D0028B9002084F87D
:102DC0003C00204600F028F8242084F83D002068CC
:102DD000C06820F400502168C860204601F07EF9E8
:102DE0002068006920F490402168086120684069EB
:102DF00020F02A00216848612068C06840F4005033
:102E00002168C86000202064202084F83D0084F8F8
:102E10003E000020CAE7000010B586B0044600203E
:102E200002900390049005903E492068884230D17A
:102E300000BF3D48806940F480403B4988610846B6
:102E4000806900F48040019000BF00BF00BF0846C9
:102E5000806940F0040088610846806900F0040041
:102E6000019000BF00BF481502900220039003208C
:102E7000059002A92D48FEF757FD4FF4806002909F
:102E8000002003900120049002A92848FEF74CFD81
:102E900045E027492068884241D100BF2248C069E7
:102EA00040F480202049C8610846C06900F48020B1
:102EB000019000BF00BF00BF0846806940F02000BD
:102EC00088610846806900F02000019000BF00BFC3
:102ED00088150290022003900320059002A915484E
:102EE000FEF722FD4FF40070029000200390049042
:102EF00002A91048FEF718FD00BF0F49486820F0EE
:102F0000300040F0E06040F03000486000BF002238
:102F100006212720FEF7BAFF2720FEF7A7FF06B0FD
:102F200010BD0000003801400010024000080140C0
:102F3000004800400014014000000140034A0168BD
:102F4000914202D10121024A1170704700380140BC
:102F5000150000202DE9F84F04460E461746994605
:102F60004FF0000A94F83D0020285AD106B117B955
:102F70000120BDE8F88F00BF94F83C00012801D182
:102F80000220F6E7012084F83C0000BF0020206406
:102F9000212084F83D00FEF775FE8246A784E78471
:102FA000A068B0F5805F04D1206910B90025B04653
:102FB00002E035464FF0000800BF002084F83C00D6
:102FC00000BF1BE05346002280212046CDF8009030
:102FD00001F032F908B10320CBE745B9B8F8000099
:102FE000C0F308002168486008F1020803E028786F
:102FF000216848606D1CE08C401EE084E08C002855
:10300000E0D15346002240212046CDF8009001F047
:1030100013F908B10320ACE7202084F83D0000201C
:10302000A7E70220A5E70000034A0168914202D108
:103030000121024A1170704700380140140000203D
:1030400000BFFEE708B5009000BF00994A1E00923D
:103050000029FAD108BD000000B585B0002001901C
:103060000290039004904FF480611448FEF76CFBCB
:103070004FF400611148FEF767FB00BF10488069FC
:1030800040F080000E4988610846806900F08000A9
:10309000009000BF00BF112002900320049008158B
:1030A000019001A90548FEF73FFC4FF40060019034
:1030B00001A90248FEF738FC05B000BD001C014024
:1030C0000010024010B5002400224FF48061174820
:1030D000FEF7D2FD0122D1021448FEF7CDFD642097
:1030E000FFF7B0FF012291021048FEF7C5FD0EE088
:1030F000641C642C08D100224FF480610B48FEF759
:10310000BBFD4FF0FF3010BD0A20FFF79BFF4FF4CF
:1031100000610648FEF7A8FD0028E9D100224FF41F
:1031200080610248FEF7A8FD0020ECE7001C01408A
:1031300010B5012291020A48FEF79EFD0122D1023C
:103140000748FEF799FD6420FFF77CFF00224FF44B
:1031500000610348FEF790FD6420FFF773FF10BD88
:10316000001C014010B500224FF400610948FEF731
:1031700083FD012291020748FEF77EFD6420FFF7E0
:1031800061FF0122D1020348FEF776FD6420FFF7BC
:1031900059FF10BD001C014070B50446002500BF5A
:1031A00023E000224FF480611248FEF765FD6420A1
:1031B000FFF748FF04F0800028B10122D1020D483A
:1031C000FEF75AFD05E000224FF400610948FEF7C2
:1031D00053FD6006040E012291020648FEF74CFDE5
:1031E0006420FFF72FFF681CC5B2082DD9DBFFF75D
:1031F00069FF70BD001C014010B5064800684068BA
:1032000030B104480068416802480068884710BD32
:103210000020FCE7B401002010B50448046802E077
:10322000A06880472469002CFAD110BDCC00002092
:1032300010B500224C210A2003F054F8064908601A
:103240000846006828B905A001F0C6F84FF0FF3025
:1032500010BD0020FCE70000C800002063616E2064
:103260006E6F742063726561746520717565756534
:103270000D0A0000024909680161014908607047B0
:10328000CC00002010B504462046FDF711FB10BD10
:1032900010B504462046FDF711FB10BD10B50446DD
:1032A0002046FDF713FB10BD70B504460D462946B8
:1032B0002046FDF711FB70BD10B5FDF715FB10BDE5
:1032C00010B5FDF715FB10BD10B5FDF715FB10BDD2
:1032D00070B504460D4629462046FDF711FB70BD2A
:1032E00010B504462046FDF713FB10BD10B504468B
:1032F0002046FDF710FB10BD10B504462046FDF733
:1033000010FB10BD70B504460D4629462046FDF75A
:1033100010FB70BD00B585B00020019002900390B5
:10332000049000BF1A48806940F040001849886145
:103330000846806900F04000009000BF00BF00BF59
:103340000846806940F0400088610846806900F0C6
:103350004000009000BF00BF0E4802900120039083
:103360008003019001A90C48FEF7DEFA4FF40040FB
:10337000019001A90848FEF7D7FA0222002128206F
:10338000FEF784FD2820FEF771FD05B000BD0000AA
:1033900000100240000031100018014070B50446D2
:1033A0000D4629462046FFF793FF70BD10B5044631
:1033B0002046FFF795FF10BD00B585B000200190B5
:1033C0000290039004903A48406820F44040384905
:1033D00048600846406840F40040486000BF084626
:1033E000806940F0040088610846806900F00400AC
:1033F000009000BF00BF00BF0846806940F4007025
:1034000088610846806900F40070009000BF00BF2A
:10341000022001900320029001A92648FEF784FAB9
:10342000002025490860091D086023480C30006809
:1034300020F0380020490C3108600846006840F050
:103440003800086000201C492831086001201A4912
:10345000303108601848001D006840F0010016492E
:10346000091D08600120FEF729F91348001D0068B6
:1034700040F008001049091D086000BF0E48001DFB
:10348000006800F008000028F8D10B48001D006813
:1034900040F004000849091D086000BF0648001DEF
:1034A000006800F004000028F8D105B000BD00005D
:1034B00000100240000801400424014010B504211E
:1034C0000348FEF7D1FB08B9012010BD0020FCE73E
:1034D000001801400E48006840F001000C490860E7
:1034E0000846006840F4801008600846006840F410
:1034F0008000086000BF06480838006800F002003D
:103500000028F8D0024844300068C0F30B00704730
:103510000824014010B5044A0021044801F092FA41
:103520000349086010BD0000907800087D3C000849
:103530000000002000B585B00020019002900390AB
:10354000049000BF3F48806940F040003D498861D9
:103550000846806900F04000009000BF00BF00BF37
:103560000846806940F0100088610846806900F0D4
:103570001000009000BF00BF00BF0846806940F007
:10358000800088610846806900F08000009000BFDC
:1035900000BF00BF0846806940F0200088610846EF
:1035A000806900F02000009000BF00BF00BF084607
:1035B000806940F0040088610846806900F00400DA
:1035C000009000BF00BF012240211F48FEF754FBBE
:1035D00001224FF478611D48FEF74EFB0122402185
:1035E0001B48FEF749FB4020019001200290039008
:1035F0000320049001A91448FEF796F94FF478606F
:1036000001900120029003900320049001A90F482B
:10361000FEF78AF94CF2040001900020029001208C
:10362000039001A90848FEF77FF94020019001208E
:10363000029003900320049001A90548FEF774F955
:1036400005B000BD0010024000180140001C014000
:103650000010014010B50B480B4908604FF4E130F1
:103660004860002108488160C16001610C2141610E
:1036700000218161C161FFF795FB08B1FDF78EFE66
:1036800010BD0000003801408C02002010B50B482E
:103690000B4908604FF4E130486000210848816020
:1036A000C16001610C21416100218161C161FFF7AD
:1036B00079FB08B1FDF772FE10BD00000048004024
:1036C000D002002000BFFEE700BFFEE70249096804
:1036D000C163014908607047F801002010B5044635
:1036E0002046FFF703FE10BD10B504462046FFF745
:1036F00003FE10BD2DE9F04104460D461F46D4F8E7
:1037000004C0A068A84202DDE068904203DC4FF0EC
:10371000FF30BDE8F08110464FEAE27802EB5878BE
:103720004FEAE8030CEBC310411910464FEAE27868
:1037300002EB58784FEAE808A2EBC80647B10878D0
:103740004FF0010808FA06F840EA0800087007E0A0
:1037500008784FF0010808FA06F820EA0800087017
:103760000020D6E770B50546002400BF0AE000211E
:10377000204600F0E7F805EBC410802100F0FCF8CB
:10378000601CC4B2082CF2DB70BD10B5022000F042
:10379000A1F83F2000F0B2F8002000F082F80020ED
:1037A00000F08CF8A12000F0D7F8C82000F0D4F881
:1037B0000021084600F042F87F2000F057F8A420CE
:1037C00000F0CAF8A62000F0C7F80821002000F099
:1037D00056F8012000F008F80021012000F02EF832
:1037E000AF2000F0B9F810BD10B5044614B1012C9B
:1037F00000D010BD8D2000F0AFF8102101EB840146
:10380000C8B200F0A9F800BFF3E7000010B5044605
:1038100009480078022800D010BD7F2C00DDFBE7AE
:1038200004F00F0000F098F8102101EB241000F0D4
:1038300093F800BFF0E700002800002070B50446B0
:103840000D4614B1012C00D070BD15B1012D00D072
:10385000FAE7DA2000F080F8022101EB041101EB15
:103860004511C8B200F078F800BFEDE710B5044686
:10387000812000F071F8204600F06EF810BD70B5A0
:1038800004460D460F2C01DC0F2D00DD70BDD52048
:1038900000F062F804EB0511C8B200F05DF800BF5B
:1038A000F4E710B504463F2C00DD10BDD32000F036
:1038B00053F8204600F050F800BFF6E710B5044674
:1038C0003F2C00DD10BD04F14001C8B200F044F807
:1038D00000BFF7E710B5044624B1012C02D0022C3A
:1038E00000D010BD202000F037F8204600F034F85A
:1038F0000148047000BFF4E72800002010B504461A
:103900000F2C01DB3F2C00DD10BDA82000F024F8B7
:10391000204600F021F800BFF6E7000010B504468D
:1039200007480078022800D010BD072C00DDFBE717
:1039300004F1B001C8B200F00FF800BFF4E70000D6
:103940002800002070B505460C462846FFF7E6FF24
:103950002046FFF75BFF70BD10B50446FFF7E8FB9C
:103960007820FFF719FC0020FFF716FC2046FFF730
:1039700013FCFFF7F7FB10BD70B504460E4600259B
:1039800004B970BDFFF7D4FB7820FFF705FC402099
:10399000FFF702FC002504E0605DFFF7FDFB681CFB
:1039A00085B2B542F8DBFFF7DDFB00BFE9E70000B9
:1039B00010B594B0002432E01B4850F8240068B3DE
:1039C000FFF77EFC184951F82410884226D3FFF7F0
:1039D0007BFC019000208DF808000CB9012000E06C
:1039E000022005904CB94FF480411048FEF73CF995
:1039F00008B901200AE0002008E04FF400410B481C
:103A0000FEF732F908B9012000E00020069001A875
:103A100000F00EF80020044941F82400641C022C38
:103A2000CADB14B010BD0000AC000020001801403B
:103A300010B5044600231A4621460348006802F0E8
:103A4000E3FE002010BD0000C800002008B50849B2
:103A50000968C9084FF47A72B1FBF2F14143009151
:103A600000BF00BF00994A1E00920029F9D108BD8D
:103A70001000002010B504462046FDF7D5FC05498E
:103A800008600846006808B1002010BD4FF0FF3004
:103A9000FBE70000B4010020014A42F82010704703
:103AA000AC000020014908607047000018000020A9
:103AB0002DE9F0438BB006460F4690461C46002584
:103AC0000597CDF8188014E060190AA9FDF786FC67
:103AD00081464D440020099001A90A98FDF798FC01
:103AE00018B901A93046FDF7C7FA0798059008985C
:103AF0000690605D0028E7D13046F16988470020D4
:103B00000BB0BDE8F08300002DE9FE4F824642A1D4
:103B10005046FCF7A7FB07460FB9BDE8FE8FFF1D17
:103B2000002403E0385D0DF80400641C385D222891
:103B3000F8D100200DF8040039A15046FCF792FBA3
:103B4000074607B9E9E70A3738782D2803D178788E
:103B50003038404201E0387830388046042233A1C2
:103B60006846FCF7BBFB70B99DF80400A0F1310971
:103B70004846FDF76DFC0546002D4BD041462846D2
:103B8000EA68904746E003222AA16846FCF7A6FBB4
:103B900048B9FDF739FC0646002E3BD04146304679
:103BA000B268904736E0042223A16846FCF796FBF2
:103BB00000282FD1B8F1000F16D1002409E02046CB
:103BC000FDF746FC05461DB101212846EA689047ED
:103BD000641C032CF3DBFDF717FC0646D6B101216C
:103BE0003046B268904715E0002409E02046FDF712
:103BF0002FFC05461DB100212846EA689047641C49
:103C0000032CF3DBFDF700FC06461EB10021304615
:103C1000B268904700BF80E722646576223A2200AE
:103C200022737461747573223A2200006C616D70A6
:103C30000000000066616E00686F6D6500000000A6
:103C4000ACB000F02DF8FDF7CFF9FDF7F9F902F06F
:103C50003BFA00F083FBFDF731F903F09DFC0BE02C
:103C60006846FDF7E7FB38B913A96846FCF76AFE1A
:103C700010B913A8FFF748FFF2E7000003A000F017
:103C8000ABFB00BF012000F07FFEFBE753746172C5
:103C90007444656661756C745461736B0D0A000041
:103CA0002DE9F0474FF4FA60FFF7F8FA0020FDF72E
:103CB000CFFB06460120FDF7CBFB07460220FDF7B0
:103CC000C7FB80463046B16888473846B9688847A0
:103CD0004046D8F808108847FDF796FB81464846CD
:103CE000D9F8041088470FF2600AFCF7ADFD504682
:103CF000FDF784FB04462CB9514615A000F06CFB7F
:103D0000BDE8F0872046A169884761696068FCF7D3
:103D10009EFA2046E1698847FCF7A2FD14A0FFF750
:103D2000A9FEFFF769FAFCF7AFFDFFF781FAFFF78D
:103D300073FAFCF7B7FD10A0FDF79AFB054628467D
:103D4000296A884700BFDBE74F4C4544000000006C
:103D500043616E206E6F74206765742044697370D0
:103D60006C61794465766963652025730D0A0000EE
:103D7000617363696900000065737038323636001C
:103D800010B500BF502080F31188BFF34F8FBFF3F1
:103D90006F8F00BF03F0ECF918B14FF08050044969
:103DA000086000BF002080F3118800BF10BD000034
:103DB00004ED00E000B58FB0282105A8FCF747FA14
:103DC00014216846FCF743FA012005900004069090
:103DD000002007900120099002200C90C1030D9152
:103DE0004FF4E0110E9105A8FEF7F4F908B1FDF7C4
:103DF000D5FA0F20009002200190002002904FF48D
:103E0000806003900020049002216846FEF790F83D
:103E100008B1FDF7C3FA0FB000BD704710B50248F6
:103E2000FEF7B6FD10BD00001403002010B50268B7
:103E3000204B98420ED0204B98420BD0B0F1804FCF
:103E400008D01E4B984205D01D4B984202D01D4B06
:103E5000984203D122F070024B681A43154B9842E6
:103E60000ED0154B98420BD0B0F1804F08D0134BB9
:103E7000984205D0124B984202D0124B984203D17F
:103E800022F44072CB681A4322F080034C6943EA63
:103E9000040202608B68C3620B688362054B984220
:103EA00002D0054B984201D10B69036301234361A2
:103EB00010BD0000002C014000340140000400400F
:103EC00000080040000C004030B50C46816821F429
:103ED0007F4142EA032525432943816030BD0A46DC
:103EE000816821F0700142F0070319438160704737
:103EF00030B50B461446026A056A25F001050562D5
:103F0000816921F0F00141EA041122F00A021A430A
:103F10008161026230BD30B50B461446056A25F05A
:103F2000100505628169026A21F4704141EA043199
:103F300022F0A00242EA03128161026230BD000059
:103F400010B50446024801F0A7FC002010BD000097
:103F50007C3100200021034AC2F88010C2F884108E
:103F6000704700007C31002070B505460C460249C0
:103F7000204601F097FC70BD7C31002070B50646EC
:103F80000C46154629462046FFF7BCF970BD70B5B2
:103F900005466C6A0020E085E0842046FEF7DAFDE5
:103FA00070BD0168C96821F490710268D160016830
:103FB000496921F0010102685161016B012905D1B4
:103FC0000168C96821F010010268D160202180F8E1
:103FD0003E1000210163704710B504462068C06898
:103FE00020F040002168C860202084F83D00204671
:103FF000FFF71AF8002010BDF8B5044694F83E000B
:10400000222869D1A068B0F5805F0CD1206950B931
:104010000025A66A20684068C0F308003080A06AC6
:10402000801CA06215E0A56A0026A068B0F5805F3C
:1040300003D0A06828B9206918B9206840682870A2
:1040400004E02068406800F07F002870A06A401CEF
:10405000A062E08D401E80B2E085A8BB2068C068E9
:1040600020F020002168C8602068C06820F48070BB
:104070002168C8602068406920F00100216848611B
:10408000202084F83E00206B01281ED100202063F0
:104090002068C06820F010002168C86020680068AF
:1040A00000F0100010280AD100BF00200090206806
:1040B0000068009020684068009000BF00BFA18D9C
:1040C0002046FEF746FD03E004E02046FEF736FFFB
:1040D0000020F8BD0020FCE70220FAE770B5044696
:1040E0002168096921F44051E26811432268116195
:1040F0002269A1681143626941EA02052168C96821
:1041000041F20C62914329432268D16021684969D8
:1041100021F44071A2691143226851612D4A21683E
:10412000914202D1FDF7FCFF01E0FDF7E9FF00EB52
:10413000C00101EB001162689200B1FBF2F100EBEB
:10414000C00202EB001263689B00B2FBF3F264232F
:10415000B2FBF3F202EBC20303EB0212A1EB82010A
:10416000322202EB01116422B1FBF2F101F0F00105
:1041700000EBC00202EB001263689B00B2FBF3F29B
:104180006423B2FBF3F201EB021200EBC00101EB7E
:10419000001163689B00B1FBF3F100EBC00303EB7C
:1041A00000136668B600B3FBF6F36426B3FBF6F3C0
:1041B00003EBC30606EB0313A1EB8301322303EBEE
:1041C00001116423B1FBF3F101F00F0111442268E6
:1041D000916070BD00380140014691F83D002128F2
:1041E00028D18868B0F5805F0BD1086948B90A6AA0
:1041F0001088C0F308000B685860086A801C0862C9
:1042000005E00B6A581C086218780B685860C88C67
:10421000401E80B2C88458B90868C06820F0800089
:104220000B68D8600868C06840F040000B68D86030
:10423000002070470220FCE72DE9F04104460D46BE
:1042400017469846069E21E0701CF8B12EB1FDF786
:1042500019FDA0EB0800B04218D92068C06820F40E
:10426000D0702168C8602068406920F00100216892
:104270004861202084F83D0084F83E0000BF002003
:1042800084F83C0000BF0320BDE8F081206800688E
:104290002840A84201D1012000E00020B842D3D03C
:1042A0000020F1E710B500240848006800F0200065
:1042B00038B10648001D0068C4B20549204601F027
:1042C00008FB0448FEF748FC10BD00000038014020
:1042D000040200208C02002010B500240F48006862
:1042E00018B9FDF7E3F80D4908600D48006800F0C3
:1042F000200078B10A48001D0068C4B20748016870
:10430000204601F0E6FA0748006818B12046054942
:10431000096888470448FEF71FFC10BD1C000020F8
:104320000048004018000020D002002010B50246CE
:1043300000200BE000BF074B1B6803F08003002B3D
:10434000F9D0135C034C241D2360401C8842F1DB30
:1043500010BD00000048004000BFFEE710B50CA0F3
:10436000FDF786F8044610E00BA20EA12046636A12
:10437000984718B90EA000F02FF807E011A000F040
:104380002BF84FF47A70FEF789FFEDE700BF10BD00
:10439000657370383236360031323334353637385B
:1043A000000000004178696F6D626F7400000000CA
:1043B000436F6E6E6563742057494649206F6B0DDD
:1043C0000A000000436F6E6E6563742057494649CA
:1043D000206572720D0A00000FB4054B10B503A9D9
:1043E000044A029800F0A4F810BC5DF814FB000029
:1043F00095480008000200200FB41CB502460020BA
:1044000007AC00290BD0491ECDE90021054B6A46B7
:104410002146069800F08CF8009A002111701CBC0F
:104420005DF814FB734800080FB4084B10B504A9DD
:1044300002AA039800F07CF8044602A9002000F0CC
:1044400023FA204610BC5DF814FB000089480008E0
:1044500070B505460748046807E029462068FBF761
:1044600026FF08B9204670BD646A002CF5D10020F3
:10447000F9E700006C01002070B5054607480468A4
:1044800007E029462068FBF712FF08B9204670BDF7
:104490006469002CF5D10020F9E70000B00100208C
:1044A00070B505460748046807E029462068FBF711
:1044B000FEFE08B9204670BDE46B002CF5D100204B
:1044C000F9E70000F801002002480068C0F302206C
:1044D000704700000CED00E010B5002804DB0A076F
:1044E000130E054A135406E00A07140E034A00F09F
:1044F0000F031B1FD45410BD00E400E018ED00E0D2
:10450000EFF311807047EFF305807047EFF31080F1
:10451000704702E008C8121F08C1002AFAD170478C
:104520007047002001E001C1121F002AFBD1704733
:104530002DE9FF4F8BB088460546002606E025286A
:104540000BD0DDE90D1290476D1C761C28780028F1
:10455000F5D10FB03046BDE8F08F0024A146A24649
:104560000122AE4900E0044315F8013F203B02FA66
:1045700003F00842F7D128782A2810D06FF02F02D4
:104580002878A0F13001092915D809EB890102EB3F
:10459000410144F0020400EB01096D1CF0E758F8FA
:1045A000041B5FEA010903D544F40054C9F1000972
:1045B00044F002046D1C28782E2817D115F8010F3D
:1045C00044F004042A280ED06FF02F022878A0F1BE
:1045D000300109290AD80AEB8A0102EB410100EBFC
:1045E000010A6D1CF2E758F804AB6D1C28786C28A2
:1045F0000FD006DC4C2817D068280DD06A2814D1BB
:1046000004E0742810D07A280FD10DE044F400148F
:104610000AE044F4801401E044F4401469788142D3
:1046200002D104F580146D1C6D1C2878692865D0B2
:1046300006DC00288DD0632827D0642806D15DE0F1
:104640006E2808D073282AD0752877D0DDE90D129E
:104650009047761CE0E0C4F30250022809D00328FA
:104660000DD0D8F8001004280DD00E6008F1040811
:10467000D2E0D8F80010F217C1E90062F6E7D8F8E6
:1046800000100E80F2E70E70F0E718F8041B8DF8AA
:10469000001000208DF80100EB46012003E058F8DF
:1046A00004BB4FF0FF3061074FF0000701D40AE070
:1046B0007F1C57450DDA8742FADB1BF807100029EB
:1046C000F6D106E07F1C8742FCDB1BF807100029AF
:1046D000F8D1DDE90D23A9EB07008146214600F062
:1046E000B1F83044C61904E0DDE90D121BF8010BE6
:1046F00090477F1EF8D22146484688E058F8040BC0
:10470000C4F302514FF00A0B032900D100B204296F
:1047100000D140B2002802DA40422D2102E02105FA
:1047200005D52B218DF82410012104E006E0E107D6
:1047300010D02021F6E708AF089113E058F8040BD9
:10474000C4F302514FF00A0B032900D180B20429AF
:1047500000D1C0B20021EEE75946FBF7CEFD303163
:1047600007F8011D0028F7D1ADEB070000F1200B81
:10477000600702D524F4803401E04FF0010ADA45E5
:1047800002DDAAEB0B0000E00020824600EB0B01EB
:1047900008980144A9EB01000A90E00306D4DDE982
:1047A0000D2321460A9800F04DF806444FF0000909
:1047B00008E009A911F80900DDE90D12904709F197
:1047C0000109761C08998945F3DBE0030CD5DDE986
:1047D0000D2321460A9800F035F8064404E0DDE98F
:1047E0000D1230209047761CBAF10001AAF1010A9F
:1047F000F5DC05E0DDE90D1217F8010B9047761C9A
:10480000BBF10001ABF1010BF4DC0A982146DDE9B4
:104810000D2300F005F806446D1C97E609280100F9
:104820002DE9F041044600251E461746880404D4AD
:1048300005E039462020B0476D1C641EF9D5284696
:10484000BDE8F0812DE9F041044600251E46904662
:10485000C80301D5302700E02027880404D505E0EF
:1048600041463846B0476D1C641EF9D52846BDE860
:10487000F0814A68002A06D00A68531C0B60107049
:104880004868401E486070470A68531C0B601070EF
:104890007047000013B50C464FF0FF330122694604
:1048A0000248FEF757FB00201CBD00008C020020D0
:1048B00070B505460C460020285504A12846FBF794
:1048C000D1FC08B1012070BD0020FCE74552524FD9
:1048D000520D0A0070B505460C460020285504A16B
:1048E0002846FBF7BFFC08B1012070BD0020FCE7A3
:1048F0004F4B0D0A000000001CB5FDF7D5F9FFF77E
:1049000059FAFEF717FEFEF7A5FEFEF7BFFE1248A6
:1049100000F0C2FFFCF72EFD10A0FFF75DFD00F0D8
:104920004FF8FEF7F7FD002018210346C822CDE915
:1049300000100EA1104802F03FFB00202821034682
:10494000C822CDE900100DA10E4802F035FB00F0A1
:1049500057F800BFFEE700000402002048656C6CB9
:104960006F20576F726C64210D0A0000736D6172C5
:1049700074686F6D65000000413C00086468743124
:1049800031000000A90D000870B50546FFF7BBFD1A
:1049900048B9FFF7BBFD30B908480068022805D1C7
:1049A000FFF7AEFD10B16FF0050404E0002415B16F
:1049B000284601F071F9204670BD000084000020F7
:1049C00010B5FFF7A0FD48B9FFF7A0FD30B90B48BF
:1049D0000068022805D1FFF793FD10B16FF00504C0
:1049E00009E00648006820B9012004490860002455
:1049F00001E04FF0FF34204610BD0000840000208D
:104A000010B5FFF780FD48B9FFF780FD30B90C48BD
:104A10000068022805D1FFF773FD10B16FF005049F
:104A20000CE007480068012806D10220044908600C
:104A300001F0C4FA002401E04FF0FF34204610BD1D
:104A4000840000202DE9F04786B080468946144650
:104A500000200490FFF757FD00285DD1FFF756FDB9
:104A6000002859D12D480068022803D1FFF748FDDE
:104A7000002851D1B8F1000F4ED080261825002013
:104A800005900DF1140A471E44B3206808B1D4F80C
:104A900000A0A06900B1A5692DB1382D03D82079F7
:104AA00000F0010018B1002006B0BDE8F087606991
:104AB00008B160698608A06840B1E0685C2805D349
:104AC000206918B1606908B1012708E0A06830B911
:104AD000E06820B9206910B9002700E00027012F05
:104AE0000CD12169A0684B463246CDE900510290B5
:104AF0005146404602F092FA04900DE067B904A8CE
:104B0000B2B24B465146CDE90050404602F054FA4D
:104B1000012801D0002004900498C5E784000020FB
:104B20002DE9F04105460E4616480768164800680C
:104B3000001D00F0DDFE681C38B936B1124801686E
:104B4000091D124800F02AFF1AE07C190E4800687F
:104B50004460BC4207D20C480168091D0C4800683B
:104B600000F002FF0CE008480168091D09480068D0
:104B700000F0FAFE08480068844201D2064804604A
:104B8000BDE8F0814800002034000020240A002005
:104B90003C000020380000206400002010B50446CE
:104BA00000F008FF24480068401C2349086023489F
:104BB000006840B9214804600846006801280DD10A
:104BC00000F056FA0AE01E48006838B91B48006831
:104BD000C06AE16A884201D8184804601948006830
:104BE000401C184908600846006860641649E06A7D
:104BF0000968884202D91449E06A0860E16A01EB59
:104C00008101124A02EB8100211D00F0C7FE00F075
:104C10000DFF0B48006868B108480068C06AE16A87
:104C2000884207D24FF0805009490860BFF34F8F88
:104C3000BFF36F8F10BD000044000020340000203F
:104C400050000020600000204C000020740500206F
:104C500004ED00E008B500F0ADFE12480068E8B9C8
:104C6000114800F071FE114800F06EFE0E48104928
:104C700008600E480F49086000200F4B0F4A1021B2
:104C800000900A2001F086FB06490860084600688B
:104C900020B10BA10348006800F0C2FF00F0C6FE7F
:104CA00008BD000078000020380A00204C0A0020CF
:104CB0007000002074000020600A0020B00A00206C
:104CC000546D72510000000010B516E000F072FE45
:104CD0000C48C068C468201D00F00AFE0A4800683D
:104CE000401E0949086009480068401E07490860DD
:104CF00000F09CFE204600F05FF8044800680028A1
:104D0000E4D110BD100A0020440000204000002023
:104D100070B504460D46206C70B1216CE068084403
:104D2000E0606168E068884201D32068E06028465E
:104D3000226CE168FBF764FA70BD2DE9F04104468E
:104D40000F4615464FF00008A66B206C40B920684E
:104D500060BB606802F0D8FA80460020606025E001
:104D60007DB93946226CA068FBF74AFA216CA0682D
:104D70000844A060D4E90110884217D32068A060DD
:104D800014E03946226CE068FBF73AFA216CE068DF
:104D9000401AE0602168E068884203D2216C6068B4
:104DA000401AE060022D01D106B1761E701CA0638E
:104DB0004046BDE8F081000010B5044694F8590063
:104DC00030B9206B00F062FE204600F05FFE21E06B
:104DD00094F85900012803D1204600F057FE19E04D
:104DE00094F85900022801D1012000E0002088B980
:104DF00000BF502080F31188BFF34F8FBFF36F8F38
:104E000000BF40F68263044A04A111A0FFF7E4FA50
:104E100000BFFEE710BD00007B7C00082E2E2F4D4A
:104E20006964646C6577617265732F546869726434
:104E30005F50617274792F4672656552544F532FDB
:104E4000536F757263652F7461736B732E6300000B
:104E500025732025732025640D0A000001464A6A47
:104E600022B10A6B1268C2F1380000E000207047DE
:104E70000146084A126812680AB9012200E00022BD
:104E80000A600A6822B9034A1268D268106800E012
:104E9000002070477000002030B54FF4FA531748D7
:104EA00000F007042CB1C01D20F00700134C041BB8
:104EB0001B1B0246124C22600024114D6C60D0185E
:104EC000083820F007000F4C206000240D4D2D689D
:104ED0006C600C4D2D682C601146441A4C60094CD6
:104EE00024680C60084D4C682C60084D4C682C60A0
:104EF0004FF00044064D2C6030BD00000812002029
:104F000088000020900000209800002094000020DD
:104F10009C00002000BFFFF7D7FE0648006801286C
:104F2000F9D94FF0805004490860BFF34F8FBFF3A9
:104F30006F8FF0E77405002004ED00E02DE9F041EB
:104F400006460D4617469846069C0DB9246000E0BB
:104F50002760E66325640121204601F0CFFA84F83A
:104F60004C80BDE8F08100002DE9F05F82460F46DD
:104F700090469B460A9E0C9C4FEA8801A522206B16
:104F8000FBF75EF9A8F10100216B01EB800929F024
:104F9000070909F0070008B9012000E0002088B9DE
:104FA00000BF502080F31188BFF34F8FBFF36F8F86
:104FB00000BF40F25D331D4A1DA12AA0FFF70CFA85
:104FC00000BFFEE7002507E0795D04F1340041559C
:104FD000785D00B902E06D1C102DF5D300BF0021F3
:104FE00043200155382E00D33726E662E6640020C0
:104FF0002065201D00F0B5FC04F1180000F0B1FCA4
:105000002461C6F13800A06164620020606584F804
:1050100058005A465146484600F02CFC20600B9838
:1050200008B10B980460BDE8F09F0000CC7A00083E
:105030002E2E2F4D6964646C6577617265732F54F1
:10504000686972645F50617274792F467265655247
:10505000544F532F536F757263652F7461736B7365
:105060002E63000025732025732025640D0A00009F
:1050700010B5002407E004EB84010F4A02EB810025
:1050800000F062FC641C382CF5D30C4800F05CFC8A
:105090000B4800F059FC0B4800F056FC0A4800F0A1
:1050A00053FC0A4800F050FC0448094908600448D1
:1050B0000849086010BD000074050020D4090020D4
:1050C000E8090020FC090020100A0020240A002022
:1050D000380000203C00002010B50146164800E0D2
:1050E000006803688B42FBD30246436813448B423B
:1050F00004D143684C682344436001460A464B6828
:1051000013440468A34211D10C4C03682468A342E1
:1051100008D04B680468646823444B6003681B68CC
:105120000B6005E0054B1B680B6001E003680B603A
:10513000884200D0016010BD88000020900000204F
:105140002DE9F04104460D4616461F464FF0000873
:1051500065602461B5420CD8F01BA169884202D376
:105160004FF0010811E0211D0948006800F0FCFB28
:105170000BE0BE4204D2BD4202D34FF0010804E06E
:10518000211D0448006800F0EFFB4046BDE8F081B7
:10519000740000207000002070B5054600F00AFC85
:1051A000A86B08B9012400E0002400F03FFC204671
:1051B00070BD70B5054600F0FDFBA86BE96B884239
:1051C00001D1012400E0002400F030FC204670BD35
:1051D000F8B505460F461A480068C068C468201D27
:1051E00000F086FBE069012825D1A06941192B4612
:1051F0003A462046FFF7A4FF00281CD000200346B3
:105200002A4601460090204602F0D6FA06468EB99C
:1052100000BF502080F31188BFF34F8FBFF36F8F13
:1052200000BF4FF4F273074A07A114A0FFF7D4F8A8
:1052300000BFFEE700BF2046616A8847F8BD000056
:1052400070000020AE7D00082E2E2F4D6964646C26
:105250006577617265732F54686972645F5061721B
:1052600074792F4672656552544F532F536F757280
:1052700063652F74696D6572732E63002573202535
:10528000732025640D0A0000F0B587B098E00398FC
:10529000002818DA04AE8EB900BF502080F31188C0
:1052A000BFF34F8FBFF36F8F00BF40F2C3234A4A53
:1052B0004AA157A0FFF790F800BFFEE7D6E900200B
:1052C000B168904700BF0398002879DB059C6069AE
:1052D00008B9012000E0002010B9201D00F008FBF3
:1052E00002A800F0F1F8054603980A2866D2DFE824
:1052F00000F0090507393B5E06083A3C00BF00BFD5
:1053000000BF00BF0498A269811803462A462046C0
:10531000FFF716FF002824D02046616A8847E0691D
:1053200001281ED1002000900498A1694218002392
:105330001946204602F040FA07468FB900BF5020B8
:1053400080F31188BFF34F8FBFF36F8F00BF40F220
:10535000FD23214A21A12EA0FFF73EF800BFFEE762
:1053600000BF2CE000BF2AE000BF0498A061A06944
:1053700008B1012000E0002088B900BF502080F370
:105380001188BFF34F8FBFF36F8F00BF4FF445738A
:10539000114A12A11EA0FFF71FF800BFFEE7A06987
:1053A00041192B462A462046FFF7CAFE07E094F82B
:1053B0002C0010B9204600F069FB00E000BF00BFE0
:1053C000002203A91548006801F07AFB00287FF449
:1053D0005EAF07B0F0BD0000C57D00082E2E2F4D3A
:1053E0006964646C6577617265732F54686972646F
:1053F0005F50617274792F4672656552544F532F16
:10540000536F757263652F74696D6572732E6300D7
:1054100025732025732025640D0A000078000020E4
:10542000F8B505460C4600F04FFE684600F04CF813
:105430000646009820BB44B9B54206D802F0ACF845
:1054400031462846FFF7C4FE1CE03CB10E48006818
:10545000006808B9012000E000200446A91B22468C
:105460000A48006800F0F2FB02F096F850B94FF0DD
:10547000805007490860BFF34F8FBFF36F8F01E083
:1054800002F08AF8F8BD00007400002078000020C7
:1054900004ED00E00A490968096809B9012100E042
:1054A000002121B14FF0FF31064A116006E00449A6
:1054B0000968C968C868034A4168116070470000FC
:1054C000380000206400002070B5044601F04AFE58
:1054D000054607480068854204D200F00BF8012019
:1054E000206001E00020206001480560284670BD72
:1054F000800000202DE9F84339E027480068C068A3
:10550000056825480068C068C468201D00F0F0F9EF
:105510002046616A8847E069012828D1A0694619B8
:10552000AE4207D966602461211D1B48006800F067
:105530001BFA1CE0002003462A4601460090204644
:1055400002F03AF907468FB900BF502080F3118866
:10555000BFF34F8FBFF36F8F00BF40F26E330F4A20
:105560000FA11CA0FEF738FF00BFFEE700BF0A48EE
:105570000068006808B9012000E000200028BCD0C5
:105580000548D0F8008016480068034908601448B0
:10559000C0F80080BDE8F88370000020E07D0008BE
:1055A0002E2E2F4D6964646C6577617265732F547C
:1055B000686972645F50617274792F4672656552D2
:1055C000544F532F536F757263652F74696D6572F5
:1055D000732E630025732025732025640D0A0000B7
:1055E0007400002011480068401C08B9012000E048
:1055F000002080B900BF502080F31188BFF34F8F87
:10560000BFF36F8F00BFCA23094A0A490AA0FEF7F9
:10561000E3FE00BFFEE700BF502080F31188BFF318
:105620004F8FBFF36F8F00BF00BFFEE7A0000020C9
:10563000597E0008288700082573202573202564DB
:105640000D0A000008B500BF6846FFF711FC0446CC
:1056500020460099FFF7E4FEFFF716FEF4E770B569
:10566000044600F0A7F994F9455010E0606A08B9C3
:10567000012000E0002038B904F1240001F018FFF7
:1056800018B100F06DFB00E003E0681E45B2002D8C
:10569000ECDC00BFFF2084F8450000F0C7F900F003
:1056A00089F994F9445010E0206908B9012000E01C
:1056B000002048B904F1100001F0FAFE08B100F032
:1056C0004FFB681E45B200E001E0002DECDC00BF9E
:1056D000FF2084F8440000F0A9F970BD2DE9F041E5
:1056E00004464FF0000800F0EFFC5048006808B98D
:1056F000FFF7D2FB4E4800682040002877D104B362
:10570000083404F00700E0B104F00700C0F108001D
:10571000044404F0070008B9012000E0002080B92B
:1057200000BF502080F31188BFF34F8FBFF36F8FFE
:1057300000BF95233F4A404940A0FEF74DFE00BF01
:10574000FEE7002C53D04048006884424FD83F4EBB
:105750003046056801E02E462D686868A04202D2F6
:1057600028680028F7D13148006885423FD030686A
:1057700000F10808286830606868001B10281FD9ED
:105780002F1907F0070008B9012000E0002080B9B8
:1057900000BF502080F31188BFF34F8FBFF36F8F8E
:1057A00000BFC223234A244924A0FEF715FE00BFF0
:1057B000FEE76868001B78606C603846FFF78CFC79
:1057C000214968680968081A1F4908600846006886
:1057D0001F490968884203D21B4800681C490860B9
:1057E000134968680968084368600020286001F070
:1057F000D3FE08F0070008B9012000E0002088B9B6
:1058000000BF502080F31188BFF34F8FBFF36F8F1D
:1058100000BF4FF48173074A074908A0FEF7DCFD7B
:1058200000BFFEE74046BDE8F08100009000002088
:105830009C000020427E0008E08600082573202599
:10584000732025640D0A00009400002088000020C9
:10585000980000200648006830B10549096801F148
:105860005000096D491C0160014800687047000044
:1058700034000020001F4FF080730360001F21F0F0
:1058800001030360001F034B0360143802602038DB
:1058900070470000E55500080021C0F88010C0F8EE
:1058A000841070470246D1F88400D1F880309842C5
:1058B00002D14FF0FF307047D1F88400085C1070BF
:1058C000D1F88400401C00F07F00C1F88400002063
:1058D000F1E7D1F880305B1C03F07F02D1F884300F
:1058E000934204D0D1F88030C854C1F8802070476A
:1058F00001460A69D1E901309860D1E90103586095
:105900005068884201D188685060002008611068A2
:10591000401E106010687047034B0360034B0B6020
:105920008023136070470000500B0020AC0B002058
:10593000034B0360034B0B604FF48073136070479D
:10594000AC0D0020080E002000F1080141604FF06E
:10595000FF31816000F10801C16001610021016037
:10596000704700210161704710B502460B685C1C4E
:105970000CB9106907E002F1080000E040684468D3
:1059800024689C42FAD944684C604C68A1608860E5
:1059900041600A611468641C146010BD42684A606A
:1059A00093688B60936859609160086103685B1C21
:1059B0000360704710B500BF502080F31188BFF31B
:1059C0004F8FBFF36F8F00BF11480068401C104914
:1059D000086008460068012819D10E480068C0B266
:1059E00008B9012000E0002088B900BF502080F3F2
:1059F0001188BFF34F8FBFF36F8F00BF4FF4B373A6
:105A0000054A064906A0FEF7E7FC00BFFEE710BD09
:105A1000A000002004ED00E0907E00082887000828
:105A200025732025732025640D0A000010B5114848
:105A3000006888B900BF502080F31188BFF34F8FF2
:105A4000BFF36F8F00BF40F26D130B4A0B490CA0E0
:105A5000FEF7C2FC00BFFEE706480068401E05498D
:105A600008600846006820B9002080F3118800BF54
:105A700000BF10BDA0000020A37E000828870008FA
:105A800025732025732025640D0A000070B5064695
:105A90003546002E4DD0083D2C46264960680968E1
:105AA000084008B1012000E0002088B900BF502064
:105AB00080F31188BFF34F8FBFF36F8F00BF4FF498
:105AC0008B731D4A1D491EA0FEF786FC00BFFEE732
:105AD000206808B9012000E0002088B900BF5020EC
